{
  "contractName": "Acquisto",
  "abi": [
    {
      "inputs": [
        {
          "internalType": "string",
          "name": "name",
          "type": "string"
        },
        {
          "internalType": "string",
          "name": "symbol",
          "type": "string"
        }
      ],
      "stateMutability": "nonpayable",
      "type": "constructor"
    },
    {
      "anonymous": false,
      "inputs": [
        {
          "indexed": true,
          "internalType": "address",
          "name": "owner",
          "type": "address"
        },
        {
          "indexed": true,
          "internalType": "address",
          "name": "approved",
          "type": "address"
        },
        {
          "indexed": true,
          "internalType": "uint256",
          "name": "tokenId",
          "type": "uint256"
        }
      ],
      "name": "Approval",
      "type": "event"
    },
    {
      "anonymous": false,
      "inputs": [
        {
          "indexed": true,
          "internalType": "address",
          "name": "owner",
          "type": "address"
        },
        {
          "indexed": true,
          "internalType": "address",
          "name": "operator",
          "type": "address"
        },
        {
          "indexed": false,
          "internalType": "bool",
          "name": "approved",
          "type": "bool"
        }
      ],
      "name": "ApprovalForAll",
      "type": "event"
    },
    {
      "anonymous": false,
      "inputs": [
        {
          "indexed": false,
          "internalType": "address",
          "name": "a",
          "type": "address"
        },
        {
          "indexed": false,
          "internalType": "uint256",
          "name": "b",
          "type": "uint256"
        }
      ],
      "name": "NFTMinted",
      "type": "event"
    },
    {
      "anonymous": false,
      "inputs": [
        {
          "indexed": true,
          "internalType": "address",
          "name": "previousOwner",
          "type": "address"
        },
        {
          "indexed": true,
          "internalType": "address",
          "name": "newOwner",
          "type": "address"
        }
      ],
      "name": "OwnershipTransferred",
      "type": "event"
    },
    {
      "anonymous": false,
      "inputs": [
        {
          "indexed": true,
          "internalType": "address",
          "name": "from",
          "type": "address"
        },
        {
          "indexed": true,
          "internalType": "address",
          "name": "to",
          "type": "address"
        },
        {
          "indexed": true,
          "internalType": "uint256",
          "name": "tokenId",
          "type": "uint256"
        }
      ],
      "name": "Transfer",
      "type": "event"
    },
    {
      "anonymous": false,
      "inputs": [
        {
          "indexed": false,
          "internalType": "address",
          "name": "a",
          "type": "address"
        },
        {
          "indexed": false,
          "internalType": "address",
          "name": "b",
          "type": "address"
        }
      ],
      "name": "transferEff",
      "type": "event"
    },
    {
      "inputs": [
        {
          "internalType": "address",
          "name": "to",
          "type": "address"
        },
        {
          "internalType": "uint256",
          "name": "tokenId",
          "type": "uint256"
        }
      ],
      "name": "approve",
      "outputs": [],
      "stateMutability": "nonpayable",
      "type": "function"
    },
    {
      "inputs": [
        {
          "internalType": "address",
          "name": "owner",
          "type": "address"
        }
      ],
      "name": "balanceOf",
      "outputs": [
        {
          "internalType": "uint256",
          "name": "",
          "type": "uint256"
        }
      ],
      "stateMutability": "view",
      "type": "function",
      "constant": true
    },
    {
      "inputs": [
        {
          "internalType": "uint256",
          "name": "tokenId",
          "type": "uint256"
        }
      ],
      "name": "getApproved",
      "outputs": [
        {
          "internalType": "address",
          "name": "",
          "type": "address"
        }
      ],
      "stateMutability": "view",
      "type": "function",
      "constant": true
    },
    {
      "inputs": [
        {
          "internalType": "address",
          "name": "owner",
          "type": "address"
        },
        {
          "internalType": "address",
          "name": "operator",
          "type": "address"
        }
      ],
      "name": "isApprovedForAll",
      "outputs": [
        {
          "internalType": "bool",
          "name": "",
          "type": "bool"
        }
      ],
      "stateMutability": "view",
      "type": "function",
      "constant": true
    },
    {
      "inputs": [],
      "name": "name",
      "outputs": [
        {
          "internalType": "string",
          "name": "",
          "type": "string"
        }
      ],
      "stateMutability": "view",
      "type": "function",
      "constant": true
    },
    {
      "inputs": [],
      "name": "owner",
      "outputs": [
        {
          "internalType": "address",
          "name": "",
          "type": "address"
        }
      ],
      "stateMutability": "view",
      "type": "function",
      "constant": true
    },
    {
      "inputs": [
        {
          "internalType": "uint256",
          "name": "tokenId",
          "type": "uint256"
        }
      ],
      "name": "ownerOf",
      "outputs": [
        {
          "internalType": "address",
          "name": "",
          "type": "address"
        }
      ],
      "stateMutability": "view",
      "type": "function",
      "constant": true
    },
    {
      "inputs": [],
      "name": "renounceOwnership",
      "outputs": [],
      "stateMutability": "nonpayable",
      "type": "function"
    },
    {
      "inputs": [
        {
          "internalType": "address",
          "name": "from",
          "type": "address"
        },
        {
          "internalType": "address",
          "name": "to",
          "type": "address"
        },
        {
          "internalType": "uint256",
          "name": "tokenId",
          "type": "uint256"
        }
      ],
      "name": "safeTransferFrom",
      "outputs": [],
      "stateMutability": "nonpayable",
      "type": "function"
    },
    {
      "inputs": [
        {
          "internalType": "address",
          "name": "from",
          "type": "address"
        },
        {
          "internalType": "address",
          "name": "to",
          "type": "address"
        },
        {
          "internalType": "uint256",
          "name": "tokenId",
          "type": "uint256"
        },
        {
          "internalType": "bytes",
          "name": "data",
          "type": "bytes"
        }
      ],
      "name": "safeTransferFrom",
      "outputs": [],
      "stateMutability": "nonpayable",
      "type": "function"
    },
    {
      "inputs": [
        {
          "internalType": "address",
          "name": "operator",
          "type": "address"
        },
        {
          "internalType": "bool",
          "name": "approved",
          "type": "bool"
        }
      ],
      "name": "setApprovalForAll",
      "outputs": [],
      "stateMutability": "nonpayable",
      "type": "function"
    },
    {
      "inputs": [
        {
          "internalType": "bytes4",
          "name": "interfaceId",
          "type": "bytes4"
        }
      ],
      "name": "supportsInterface",
      "outputs": [
        {
          "internalType": "bool",
          "name": "",
          "type": "bool"
        }
      ],
      "stateMutability": "view",
      "type": "function",
      "constant": true
    },
    {
      "inputs": [],
      "name": "symbol",
      "outputs": [
        {
          "internalType": "string",
          "name": "",
          "type": "string"
        }
      ],
      "stateMutability": "view",
      "type": "function",
      "constant": true
    },
    {
      "inputs": [
        {
          "internalType": "uint256",
          "name": "tokenId",
          "type": "uint256"
        }
      ],
      "name": "tokenURI",
      "outputs": [
        {
          "internalType": "string",
          "name": "",
          "type": "string"
        }
      ],
      "stateMutability": "view",
      "type": "function",
      "constant": true
    },
    {
      "inputs": [
        {
          "internalType": "address",
          "name": "from",
          "type": "address"
        },
        {
          "internalType": "address",
          "name": "to",
          "type": "address"
        },
        {
          "internalType": "uint256",
          "name": "tokenId",
          "type": "uint256"
        }
      ],
      "name": "transferFrom",
      "outputs": [],
      "stateMutability": "nonpayable",
      "type": "function"
    },
    {
      "inputs": [
        {
          "internalType": "address",
          "name": "newOwner",
          "type": "address"
        }
      ],
      "name": "transferOwnership",
      "outputs": [],
      "stateMutability": "nonpayable",
      "type": "function"
    },
    {
      "inputs": [
        {
          "internalType": "address",
          "name": "newOwner",
          "type": "address"
        }
      ],
      "name": "change_owner",
      "outputs": [
        {
          "internalType": "address",
          "name": "",
          "type": "address"
        }
      ],
      "stateMutability": "nonpayable",
      "type": "function"
    },
    {
      "inputs": [],
      "name": "createNFTS",
      "outputs": [],
      "stateMutability": "nonpayable",
      "type": "function"
    },
    {
      "inputs": [
        {
          "internalType": "address",
          "name": "to",
          "type": "address"
        },
        {
          "internalType": "uint256",
          "name": "idOpera",
          "type": "uint256"
        }
      ],
      "name": "trasferimento",
      "outputs": [
        {
          "internalType": "address",
          "name": "",
          "type": "address"
        }
      ],
      "stateMutability": "payable",
      "type": "function",
      "payable": true
    },
    {
      "inputs": [],
      "name": "getBuyers",
      "outputs": [
        {
          "internalType": "address[16]",
          "name": "",
          "type": "address[16]"
        }
      ],
      "stateMutability": "view",
      "type": "function",
      "constant": true
    }
  ],
  "bytecode": "0x608060405234801561001057600080fd5b5060405161213738038061213783398101604081905261002f916105ee565b8181600061003d83826106df565b50600161004a82826106df565b50505061006361005e61008460201b60201c565b610088565b600780546001600160a01b0319163317905561007d6100da565b5050610826565b3390565b600680546001600160a01b038381166001600160a01b0319831681179093556040519116919082907f8be0079c531659141344cd1fd0a4f28419497f9722a3daafe3b4186f6b6457e090600090a35050565b6100e2610177565b60005b601081101561017457600754610104906001600160a01b0316826101d8565b6000818152601860209081526040808320600a90556019825291829020805460ff1916905560075482516001600160a01b0390911681529081018390527f4cc0a9c4a99ddc700de1af2c9f916a7cbfdb71f14801ccff94061ad1ef8a8040910160405180910390a16001016100e5565b50565b6006546001600160a01b031633146101d65760405162461bcd60e51b815260206004820181905260248201527f4f776e61626c653a2063616c6c6572206973206e6f7420746865206f776e657260448201526064015b60405180910390fd5b565b6101f88282604051806020016040528060008152506101fc60201b60201c565b5050565b610206838361026d565b61021360008484846103f8565b6102685760405162461bcd60e51b8152602060048201526032602482015260008051602061211783398151915260448201527131b2b4bb32b91034b6b83632b6b2b73a32b960711b60648201526084016101cd565b505050565b6001600160a01b0382166102c35760405162461bcd60e51b815260206004820181905260248201527f4552433732313a206d696e7420746f20746865207a65726f206164647265737360448201526064016101cd565b6000818152600260205260409020546001600160a01b0316156103285760405162461bcd60e51b815260206004820152601c60248201527f4552433732313a20746f6b656e20616c7265616479206d696e7465640000000060448201526064016101cd565b6000818152600260205260409020546001600160a01b03161561038d5760405162461bcd60e51b815260206004820152601c60248201527f4552433732313a20746f6b656e20616c7265616479206d696e7465640000000060448201526064016101cd565b6001600160a01b038216600081815260036020908152604080832080546001019055848352600290915280822080546001600160a01b0319168417905551839291907fddf252ad1be2c89b69c2b068fc378daa952ba7f163c4a11628f55a4df523b3ef908290a45050565b60006001600160a01b0384163b1561052757604051630a85bd0160e11b81526001600160a01b0385169063150b7a029061043c90339089908890889060040161079d565b6020604051808303816000875af1925050508015610477575060408051601f3d908101601f19168201909252610474918101906107f5565b60015b61050d573d8080156104a5576040519150601f19603f3d011682016040523d82523d6000602084013e6104aa565b606091505b5080516000036105055760405162461bcd60e51b8152602060048201526032602482015260008051602061211783398151915260448201527131b2b4bb32b91034b6b83632b6b2b73a32b960711b60648201526084016101cd565b805181602001fd5b6001600160e01b031916630a85bd0160e11b14905061052b565b5060015b949350505050565b634e487b7160e01b600052604160045260246000fd5b60005b8381101561056457818101518382015260200161054c565b50506000910152565b600082601f83011261057e57600080fd5b81516001600160401b0381111561059757610597610533565b604051601f8201601f19908116603f011681016001600160401b03811182821017156105c5576105c5610533565b6040528181528382016020018510156105dd57600080fd5b61052b826020830160208701610549565b6000806040838503121561060157600080fd5b82516001600160401b0381111561061757600080fd5b6106238582860161056d565b602085015190935090506001600160401b0381111561064157600080fd5b61064d8582860161056d565b9150509250929050565b600181811c9082168061066b57607f821691505b60208210810361068b57634e487b7160e01b600052602260045260246000fd5b50919050565b601f82111561026857806000526020600020601f840160051c810160208510156106b85750805b601f840160051c820191505b818110156106d857600081556001016106c4565b5050505050565b81516001600160401b038111156106f8576106f8610533565b61070c816107068454610657565b84610691565b6020601f82116001811461074057600083156107285750848201515b600019600385901b1c1916600184901b1784556106d8565b600084815260208120601f198516915b828110156107705787850151825560209485019460019092019101610750565b508482101561078e5786840151600019600387901b60f8161c191681555b50505050600190811b01905550565b60018060a01b038516815260018060a01b038416602082015282604082015260806060820152600082518060808401526107de8160a0850160208701610549565b601f01601f19169190910160a00195945050505050565b60006020828403121561080757600080fd5b81516001600160e01b03198116811461081f57600080fd5b9392505050565b6118e2806108356000396000f3fe60806040526004361061011f5760003560e01c80638da5cb5b116100a0578063e985e9c511610064578063e985e9c51461032b578063f2fde38b14610374578063f64bfaba14610394578063f91a4066146103b6578063fcea395c146103cb57600080fd5b80638da5cb5b1461029857806395d89b41146102b6578063a22cb465146102cb578063b88d4fde146102eb578063c87b56dd1461030b57600080fd5b8063253c8bd4116100e7578063253c8bd4146101f557806342842e0e146102155780636352211e1461023557806370a0823114610255578063715018a61461028357600080fd5b806301ffc9a71461012457806306fdde0314610159578063081812fc1461017b578063095ea7b3146101b357806323b872dd146101d5575b600080fd5b34801561013057600080fd5b5061014461013f366004611419565b6103de565b60405190151581526020015b60405180910390f35b34801561016557600080fd5b5061016e610430565b6040516101509190611486565b34801561018757600080fd5b5061019b610196366004611499565b6104c2565b6040516001600160a01b039091168152602001610150565b3480156101bf57600080fd5b506101d36101ce3660046114c9565b6104e9565b005b3480156101e157600080fd5b506101d36101f03660046114f3565b610603565b34801561020157600080fd5b5061019b610210366004611530565b610634565b34801561022157600080fd5b506101d36102303660046114f3565b61064f565b34801561024157600080fd5b5061019b610250366004611499565b61066a565b34801561026157600080fd5b50610275610270366004611530565b6106ca565b604051908152602001610150565b34801561028f57600080fd5b506101d3610750565b3480156102a457600080fd5b506006546001600160a01b031661019b565b3480156102c257600080fd5b5061016e610764565b3480156102d757600080fd5b506101d36102e636600461154b565b610773565b3480156102f757600080fd5b506101d361030636600461159d565b610782565b34801561031757600080fd5b5061016e610326366004611499565b6107ba565b34801561033757600080fd5b50610144610346366004611681565b6001600160a01b03918216600090815260056020908152604080832093909416825291909152205460ff1690565b34801561038057600080fd5b506101d361038f366004611530565b61082e565b3480156103a057600080fd5b506103a96108a7565b60405161015091906116b4565b3480156103c257600080fd5b506101d36108ed565b61019b6103d93660046114c9565b610987565b60006001600160e01b031982166380ac58cd60e01b148061040f57506001600160e01b03198216635b5e139f60e01b145b8061042a57506301ffc9a760e01b6001600160e01b03198316145b92915050565b60606000805461043f906116ef565b80601f016020809104026020016040519081016040528092919081815260200182805461046b906116ef565b80156104b85780601f1061048d576101008083540402835291602001916104b8565b820191906000526020600020905b81548152906001019060200180831161049b57829003601f168201915b5050505050905090565b60006104cd82610b43565b506000908152600460205260409020546001600160a01b031690565b60006104f48261066a565b9050806001600160a01b0316836001600160a01b0316036105665760405162461bcd60e51b815260206004820152602160248201527f4552433732313a20617070726f76616c20746f2063757272656e74206f776e656044820152603960f91b60648201526084015b60405180910390fd5b336001600160a01b038216148061058257506105828133610346565b6105f45760405162461bcd60e51b815260206004820152603d60248201527f4552433732313a20617070726f76652063616c6c6572206973206e6f7420746f60448201527f6b656e206f776e6572206f7220617070726f76656420666f7220616c6c000000606482015260840161055d565b6105fe8383610ba2565b505050565b61060d3382610c10565b6106295760405162461bcd60e51b815260040161055d90611729565b6105fe838383610c8f565b600061063e610df3565b61064782610e4d565b50805b919050565b6105fe83838360405180602001604052806000815250610782565b6000818152600260205260408120546001600160a01b03168061042a5760405162461bcd60e51b8152602060048201526018602482015277115490cdcc8c4e881a5b9d985b1a59081d1bdad95b88125160421b604482015260640161055d565b60006001600160a01b0382166107345760405162461bcd60e51b815260206004820152602960248201527f4552433732313a2061646472657373207a65726f206973206e6f7420612076616044820152683634b21037bbb732b960b91b606482015260840161055d565b506001600160a01b031660009081526003602052604090205490565b610758610df3565b6107626000610e4d565b565b60606001805461043f906116ef565b61077e338383610e9f565b5050565b61078c3383610c10565b6107a85760405162461bcd60e51b815260040161055d90611729565b6107b484848484610f6d565b50505050565b60606107c582610b43565b60006107dc60408051602081019091526000815290565b905060008151116107fc5760405180602001604052806000815250610827565b8061080684610fa0565b604051602001610817929190611776565b6040516020818303038152906040525b9392505050565b610836610df3565b6001600160a01b03811661089b5760405162461bcd60e51b815260206004820152602660248201527f4f776e61626c653a206e6577206f776e657220697320746865207a65726f206160448201526564647265737360d01b606482015260840161055d565b6108a481610e4d565b50565b6108af6113e4565b604080516102008101918290529060089060109082845b81546001600160a01b031681526001909101906020018083116108c6575050505050905090565b6108f5610df3565b60005b60108110156108a457600754610917906001600160a01b031682611033565b6000818152601860209081526040808320600a90556019825291829020805460ff1916905560075482516001600160a01b0390911681529081018390527f4cc0a9c4a99ddc700de1af2c9f916a7cbfdb71f14801ccff94061ad1ef8a8040910160405180910390a16001016108f8565b6000818152601860205260408120543410156109f15760405162461bcd60e51b815260206004820152602360248201527f4c6120736f6d6d61206d616e64617461206e6f6e2065272073756666696369656044820152626e746560e81b606482015260840161055d565b60008281526019602052604090205460ff1615610a5b5760405162461bcd60e51b815260206004820152602260248201527f496c2071756164726f206527206769612720737461746f206163717569737461604482015261746f60f01b606482015260840161055d565b6007546040516001600160a01b03909116903480156108fc02916000818181858888f19350505050158015610a94573d6000803e3d6000fd5b50600754610aac906001600160a01b03168484610c8f565b600754604080516001600160a01b03928316815291851660208301527f9b75390b0c79475a4d563cdfe70d863a8a414bbfc65a0d2b5244101741949a5a910160405180910390a18260088360108110610b0757610b076117a5565b0180546001600160a01b0319166001600160a01b0392909216919091179055506000908152601960205260409020805460ff1916600117905590565b6000818152600260205260409020546001600160a01b03166108a45760405162461bcd60e51b8152602060048201526018602482015277115490cdcc8c4e881a5b9d985b1a59081d1bdad95b88125160421b604482015260640161055d565b600081815260046020526040902080546001600160a01b0319166001600160a01b0384169081179091558190610bd78261066a565b6001600160a01b03167f8c5be1e5ebec7d5bd14f71427d1e84f3dd0314c0f7b2291e5b200ac8c7c3b92560405160405180910390a45050565b600080610c1c8361066a565b9050806001600160a01b0316846001600160a01b03161480610c6357506001600160a01b0380821660009081526005602090815260408083209388168352929052205460ff165b80610c875750836001600160a01b0316610c7c846104c2565b6001600160a01b0316145b949350505050565b826001600160a01b0316610ca28261066a565b6001600160a01b031614610cc85760405162461bcd60e51b815260040161055d906117bb565b6001600160a01b038216610d2a5760405162461bcd60e51b8152602060048201526024808201527f4552433732313a207472616e7366657220746f20746865207a65726f206164646044820152637265737360e01b606482015260840161055d565b826001600160a01b0316610d3d8261066a565b6001600160a01b031614610d635760405162461bcd60e51b815260040161055d906117bb565b600081815260046020908152604080832080546001600160a01b03199081169091556001600160a01b0387811680865260038552838620805460001901905590871680865283862080546001019055868652600290945282852080549092168417909155905184937fddf252ad1be2c89b69c2b068fc378daa952ba7f163c4a11628f55a4df523b3ef91a4505050565b6006546001600160a01b031633146107625760405162461bcd60e51b815260206004820181905260248201527f4f776e61626c653a2063616c6c6572206973206e6f7420746865206f776e6572604482015260640161055d565b600680546001600160a01b038381166001600160a01b0319831681179093556040519116919082907f8be0079c531659141344cd1fd0a4f28419497f9722a3daafe3b4186f6b6457e090600090a35050565b816001600160a01b0316836001600160a01b031603610f005760405162461bcd60e51b815260206004820152601960248201527f4552433732313a20617070726f766520746f2063616c6c657200000000000000604482015260640161055d565b6001600160a01b03838116600081815260056020908152604080832094871680845294825291829020805460ff191686151590811790915591519182527f17307eab39ab6107e8899845ad3d59bd9653f200f220920489ca2b5937696c31910160405180910390a3505050565b610f78848484610c8f565b610f848484848461104d565b6107b45760405162461bcd60e51b815260040161055d90611800565b60606000610fad8361114e565b600101905060008167ffffffffffffffff811115610fcd57610fcd611587565b6040519080825280601f01601f191660200182016040528015610ff7576020820181803683370190505b5090508181016020015b600019016f181899199a1a9b1b9c1cb0b131b232b360811b600a86061a8153600a850494508461100157509392505050565b61077e828260405180602001604052806000815250611226565b60006001600160a01b0384163b1561114357604051630a85bd0160e11b81526001600160a01b0385169063150b7a0290611091903390899088908890600401611852565b6020604051808303816000875af19250505080156110cc575060408051601f3d908101601f191682019092526110c99181019061188f565b60015b611129573d8080156110fa576040519150601f19603f3d011682016040523d82523d6000602084013e6110ff565b606091505b5080516000036111215760405162461bcd60e51b815260040161055d90611800565b805181602001fd5b6001600160e01b031916630a85bd0160e11b149050610c87565b506001949350505050565b60008072184f03e93ff9f4daa797ed6e38ed64bf6a1f0160401b831061118d5772184f03e93ff9f4daa797ed6e38ed64bf6a1f0160401b830492506040015b6d04ee2d6d415b85acef810000000083106111b9576d04ee2d6d415b85acef8100000000830492506020015b662386f26fc1000083106111d757662386f26fc10000830492506010015b6305f5e10083106111ef576305f5e100830492506008015b612710831061120357612710830492506004015b60648310611215576064830492506002015b600a831061042a5760010192915050565b6112308383611259565b61123d600084848461104d565b6105fe5760405162461bcd60e51b815260040161055d90611800565b6001600160a01b0382166112af5760405162461bcd60e51b815260206004820181905260248201527f4552433732313a206d696e7420746f20746865207a65726f2061646472657373604482015260640161055d565b6000818152600260205260409020546001600160a01b0316156113145760405162461bcd60e51b815260206004820152601c60248201527f4552433732313a20746f6b656e20616c7265616479206d696e74656400000000604482015260640161055d565b6000818152600260205260409020546001600160a01b0316156113795760405162461bcd60e51b815260206004820152601c60248201527f4552433732313a20746f6b656e20616c7265616479206d696e74656400000000604482015260640161055d565b6001600160a01b038216600081815260036020908152604080832080546001019055848352600290915280822080546001600160a01b0319168417905551839291907fddf252ad1be2c89b69c2b068fc378daa952ba7f163c4a11628f55a4df523b3ef908290a45050565b6040518061020001604052806010906020820280368337509192915050565b6001600160e01b0319811681146108a457600080fd5b60006020828403121561142b57600080fd5b813561082781611403565b60005b83811015611451578181015183820152602001611439565b50506000910152565b60008151808452611472816020860160208601611436565b601f01601f19169290920160200192915050565b602081526000610827602083018461145a565b6000602082840312156114ab57600080fd5b5035919050565b80356001600160a01b038116811461064a57600080fd5b600080604083850312156114dc57600080fd5b6114e5836114b2565b946020939093013593505050565b60008060006060848603121561150857600080fd5b611511846114b2565b925061151f602085016114b2565b929592945050506040919091013590565b60006020828403121561154257600080fd5b610827826114b2565b6000806040838503121561155e57600080fd5b611567836114b2565b91506020830135801515811461157c57600080fd5b809150509250929050565b634e487b7160e01b600052604160045260246000fd5b600080600080608085870312156115b357600080fd5b6115bc856114b2565b93506115ca602086016114b2565b925060408501359150606085013567ffffffffffffffff8111156115ed57600080fd5b8501601f810187136115fe57600080fd5b803567ffffffffffffffff81111561161857611618611587565b604051601f8201601f19908116603f0116810167ffffffffffffffff8111828210171561164757611647611587565b60405281815282820160200189101561165f57600080fd5b8160208401602083013760006020838301015280935050505092959194509250565b6000806040838503121561169457600080fd5b61169d836114b2565b91506116ab602084016114b2565b90509250929050565b6102008101818360005b60108110156116e65781516001600160a01b03168352602092830192909101906001016116be565b50505092915050565b600181811c9082168061170357607f821691505b60208210810361172357634e487b7160e01b600052602260045260246000fd5b50919050565b6020808252602d908201527f4552433732313a2063616c6c6572206973206e6f7420746f6b656e206f776e6560408201526c1c881bdc88185c1c1c9bdd9959609a1b606082015260800190565b60008351611788818460208801611436565b83519083019061179c818360208801611436565b01949350505050565b634e487b7160e01b600052603260045260246000fd5b60208082526025908201527f4552433732313a207472616e736665722066726f6d20696e636f72726563742060408201526437bbb732b960d91b606082015260800190565b60208082526032908201527f4552433732313a207472616e7366657220746f206e6f6e20455243373231526560408201527131b2b4bb32b91034b6b83632b6b2b73a32b960711b606082015260800190565b6001600160a01b03858116825284166020820152604081018390526080606082018190526000906118859083018461145a565b9695505050505050565b6000602082840312156118a157600080fd5b81516108278161140356fea26469706673582212200108ca88a5edbdf0f82888d76cd858d8c0864d4e74627c5b7d772617ec08517664736f6c634300081c00334552433732313a207472616e7366657220746f206e6f6e204552433732315265",
  "immutableReferences": {},
  "source": "// SPDX-License-Identifier: MIT\npragma solidity ^0.8.0;\nimport \"@openzeppelin/contracts/token/ERC721/ERC721.sol\";\nimport \"@openzeppelin/contracts/access/Ownable.sol\";\n\n\n\n\ncontract Acquisto is ERC721, Ownable{\n    address private Owner;\n    address[16] private buyers;\n    event NFTMinted(address a,uint256 b);\n    event transferEff(address a,address b);\n    mapping(uint256 => uint256) private prezzi;\n    mapping(uint256 => bool) private acquistato;\n\n\n    //Return True se il sender e' l'owner del contratto, false altrimenti\n    function isOwner() internal view returns(bool) {\n      return owner() == msg.sender; \n   }\n\n    //Cambia il proprietario del contratto\n   function change_owner(address newOwner) public onlyOwner returns (address){\n      _transferOwnership(newOwner);\n      return newOwner;\n   }\n\n    //Funzione che crea le 16 NFT (quadri)\n    function createNFTS() public onlyOwner {\n        for (uint256 i = 0; i < 16; i++) \n            {\n                _safeMint(Owner, i);\n                prezzi[i]=10;\n                acquistato[i]=false;\n                emit NFTMinted(Owner,i);\n                }\n    }\n\n    //Funzione che trasferisce un Token ad un Utente\n   function trasferimento(address to, uint idOpera) public  payable  returns (address) {\n        require(msg.value >= prezzi[idOpera], \"La somma mandata non e' sufficiente\"); \n        require(acquistato[idOpera]==false, \"Il quadro e' gia' stato acquistato\"); \n        payable(Owner).transfer(msg.value);\n        _transfer(Owner, to, idOpera); \n        emit transferEff(Owner,to); \n        buyers[idOpera] = to;\n        acquistato[idOpera]=true;\n        address tr=to;\n        return tr;            \n   }\n\n    //Funzione che restituisce un vettore che rappresenta chi possiede un'opera \n   function getBuyers() public view returns (address[16] memory) {\n      return buyers;\n   }\n\n    //costruttore\n   constructor(string memory name, string memory symbol)ERC721(name, symbol) {\n        Owner = msg.sender;\n        createNFTS();\n        }\n}\n",
  "sourcePath": "C:\\Users\\Utente\\Documents\\ProgettoSicurezza\\contracts\\Acquisto.sol",
  "compiler": {
    "name": "solc",
    "version": "0.8.28+commit.7893614a.Emscripten.clang"
  },
  "schemaVersion": "3.4.16",
  "updatedAt": "2025-01-17T17:39:12.211Z",
  "networkType": "ethereum",
  "devdoc": {
    "events": {
      "Approval(address,address,uint256)": {
        "details": "Emitted when `owner` enables `approved` to manage the `tokenId` token."
      },
      "ApprovalForAll(address,address,bool)": {
        "details": "Emitted when `owner` enables or disables (`approved`) `operator` to manage all of its assets."
      },
      "Transfer(address,address,uint256)": {
        "details": "Emitted when `tokenId` token is transferred from `from` to `to`."
      }
    },
    "kind": "dev",
    "methods": {
      "approve(address,uint256)": {
        "details": "See {IERC721-approve}."
      },
      "balanceOf(address)": {
        "details": "See {IERC721-balanceOf}."
      },
      "getApproved(uint256)": {
        "details": "See {IERC721-getApproved}."
      },
      "isApprovedForAll(address,address)": {
        "details": "See {IERC721-isApprovedForAll}."
      },
      "name()": {
        "details": "See {IERC721Metadata-name}."
      },
      "owner()": {
        "details": "Returns the address of the current owner."
      },
      "ownerOf(uint256)": {
        "details": "See {IERC721-ownerOf}."
      },
      "renounceOwnership()": {
        "details": "Leaves the contract without owner. It will not be possible to call `onlyOwner` functions. Can only be called by the current owner. NOTE: Renouncing ownership will leave the contract without an owner, thereby disabling any functionality that is only available to the owner."
      },
      "safeTransferFrom(address,address,uint256)": {
        "details": "See {IERC721-safeTransferFrom}."
      },
      "safeTransferFrom(address,address,uint256,bytes)": {
        "details": "See {IERC721-safeTransferFrom}."
      },
      "setApprovalForAll(address,bool)": {
        "details": "See {IERC721-setApprovalForAll}."
      },
      "supportsInterface(bytes4)": {
        "details": "See {IERC165-supportsInterface}."
      },
      "symbol()": {
        "details": "See {IERC721Metadata-symbol}."
      },
      "tokenURI(uint256)": {
        "details": "See {IERC721Metadata-tokenURI}."
      },
      "transferFrom(address,address,uint256)": {
        "details": "See {IERC721-transferFrom}."
      },
      "transferOwnership(address)": {
        "details": "Transfers ownership of the contract to a new account (`newOwner`). Can only be called by the current owner."
      }
    },
    "version": 1
  },
  "userdoc": {
    "kind": "user",
    "methods": {},
    "version": 1
  }
}